:020000040000FA
:020000002F28A7
:08000800AE000B1D10280B11C6
:1000100081014A20A80AC8302802031971202D281E
:100020000C108E018F01B10B2D280330B100FF3071
:10003000B0000808B200FF30880083160814881446
:1000400083120808B0008316081088108312320843
:100050008800301CA720B01C99202E0809008316A8
:100060008801E8308600D33081008B168B170C1482
:100070000B178312FF308800A301A501A401A6017C
:10008000A701A801A9018E018F010330B100013041
:100090009000492823302707840017308600000885
:1000A0005B20880027086C208600A70A04302702FE
:1000B0000319A70108008207C034F934A434B0340E
:1000C000993492348234F8348034903488348334D0
:1000D000C634A13486348E34820716341334153472
:1000E0000734A801A90A3C302902031C9828A90159
:1000F000A30A0A302302031D9828A301A50A06308B
:100100002502031D9828A501A40A04302402031D1A
:100110008D2802302602031991280A302402031D7B
:100120009828A401A60A03302602031D9828A601D8
:100130000800A901A30A0A302302031DA628A3016F
:10014000A50A06302502031DA628A5010800A9015D
:10015000A40A04302402031DB12802302602031928
:10016000B5280A302402031DBC28A401A60A0330C6
:0A0170002602031DBC28A6010800AA
:02400E00313F40
:00000001FF
