:020000040000FA
:02000000512885
:080008002B080B1D1F280B1132
:10001000AB00013081008F20A80AC8302802031DE0
:100020001D280830AA0000000000E930A9000000E7
:10003000A90B1828AA0B1528BD20AB080900080831
:10004000B100FF30B0008316FF3088008312081C17
:100050003010881CB010081D3011881DB011831697
:100060008801831231088800301CF320B01CE52081
:10007000301D3F20B01D48208F010C101D28861D0B
:1000800044288619462808008615432886114328E7
:10009000A11E4D28A11A4F280800A1164C28A11214
:1000A0004C28831600308800E03086000711D330DA
:1000B00081008B160B170C148B178312FF308800EE
:1000C000A301A501A401A601A701A801A20186150B
:1000D0000130B300B401B501B6018E018F01B0014A
:1000E000B1010330B20001309000861D752809214E
:1000F000A11B7B2875285530AF00FF30AE00AE0B3A
:100100007F28AF0B7D2807118A2007158A20AC0BAA
:10011000832875285030AD00AD0B8C2808002113C2
:10012000861921172330A11A33302707840017308E
:1001300086000008A72088002708B8208600211B19
:100140008615A70A043027020319A70108008207B1
:10015000C034F934A434B034993492348234F8344D
:100160008034903488348334C634A13486348E3459
:1001700082071634133415340734A801A20A3C3020
:100180002202031CE428A201A30A0A302302031D51
:10019000E428A301A50A06302502031DE428A501D1
:1001A000A40A04302402031DD928023026020319B0
:1001B000DD280A302402031DE428A401A60A033026
:1001C0002602031DE428A6010800A201A30A0A30A2
:1001D0002302031DF228A301A50A06302502031DF0
:1001E000F228A5010800A201A40A04302402031D7C
:1001F000FD2802302602031901290A302402031DBA
:100200000829A401A60A03302602031D0829A60115
:10021000080033082302031D1B2934082502031D8F
:100220001B2935082402031D1B2936082602031D3D
:0A0230001B29A1171C29A1130800C7
:02400E00313F40
:00000001FF
