:020000040000FA
:0200000038289E
:08000800AE000B1D11280B11C5
:1000100081015520A80AC8302802031D32287C20FF
:1000200032280C108E018F01B20B32280330B2003F
:100030008714831608148814081588158312080875
:10004000AF008316081088100811881183128710DA
:100050002F192E28861D3428861936282F1CB220E9
:10006000AF1CA4202E08090086152E2886112E28E4
:10007000831600308800E0308600D33081008B1674
:100080008B170C140B178312FF308800A301A501F6
:10009000A401A601A701A801B0018E018F010430BF
:1000A000B20001309000AF015428233027078400AC
:1000B0001730860000086620880027087720860011
:1000C000A70A043027020319A70108008207C034D9
:1000D000F934A434B034993492348234F83480340E
:1000E000903488348334C634A13486348E34820705
:1000F0001634133415340734A801B00A3C303002EA
:10010000031CA328B001A30A0A302302031DA3285D
:10011000A301A50A06302502031DA328A501A40AF0
:1001200004302402031D98280230260203199C285B
:100130000A302402031DA328A401A60A03302602C4
:10014000031DA328A6010800B001A30A0A30230258
:10015000031DB128A301A50A06302502031DB128FD
:10016000A5010800B001A40A04302402031DBC2824
:10017000023026020319C0280A302402031DC728B2
:10018000A401A60A03302602031DC728A601080001
:02400E00313F40
:00000001FF
