:020000040000FA
:020000003328A3
:080008002B080B1D1F280B1132
:10001000AB00013081007120A80AC8302802031DFE
:100020001D280830AA0000000000E930A9000000E7
:10003000A90B1828AA0B15289D20AB080900080851
:10004000B1008316FF30880083120808B0008316C1
:100050008801831231088800301CD320B01CC520D1
:100060008F010C101D28831600308800E0308600B8
:100070000711D33081008B160B170C148B178312CA
:10008000FF308800A301A501A401A601A701A801D2
:10009000A20186150130B300B401B501B6018E018D
:1000A0008F01B001B1010330B20001309000861D14
:1000B0005728E920A11B5D2857285530AF00FF3095
:1000C000AE00AE0B6128AF0B5F2807116C2007153F
:1000D0006C20AC0B652857285030AD00AD0B6E2856
:1000E00008002113861921172330270784001730B1
:1000F0008600000887208800270898208600211B9A
:100100008615A70A043027020319A70108008207F1
:10011000C034F934A434B034993492348234F8348D
:100120008034903488348334C634A13486348E3499
:1001300082071634133415340734A801A20A3C3060
:100140002202031CC428A201A30A0A302302031DB1
:10015000C428A301A50A06302502031DC428A50151
:10016000A40A04302402031DB92802302602031910
:10017000BD280A302402031DC428A401A60A0330A6
:100180002602031DC428A6010800A201A30A0A3002
:100190002302031DD228A301A50A06302502031D50
:1001A000D228A5010800A201A40A04302402031DDC
:1001B000DD28023026020319E1280A302402031D3B
:1001C000E828A401A60A03302602031DE828A60198
:1001D000080033082302031DFB2834082502031DF1
:1001E000FB2835082402031DFB2836082602031DC0
:0A01F000FB28A117FC28A11308004A
:02400E00313F40
:00000001FF
