:020000040000FA
:02000000512885
:080008002B080B1D1F280B1132
:10001000AB00013081008F20A80AC8302802031DE0
:100020001D280830AA0000000000E930A9000000E7
:10003000A90B1828AA0B1528BB20AB080900080833
:10004000B100FF30B0008316FF3088008312081C17
:100050003010881CB010081D3011881DB011831697
:100060008801831231088800301CF120B01CE32085
:10007000301D3F20B01D48208F010C101D28861D0B
:1000800044288619462808008615432886114328E7
:10009000A11E4D28A11A4F280800A1164C28A11214
:1000A0004C28831600308800E03086000711D330DA
:1000B00081008B160B170C148B178312FF308800EE
:1000C000A301A501A401A601A701A801A20186150B
:1000D0000130B300B401B501B6018E018F01B0014A
:1000E000B1010330B20001309000861D7528072150
:1000F000A11B7B2875285530AF00FF30AE00AE0B3A
:100100007F28AF0B7D2807118A2007158A20AC0BAA
:10011000832875285030AD00AD0B8C2808002113C2
:10012000861921172330270784001730860000081E
:10013000A52088002708B6208600211B8615A70A5F
:10014000043027020319A70108008207C034F934DC
:10015000A434B034993492348234F83480349034F6
:1001600088348334C634A13486348E3482071634FE
:10017000133415340734A801A20A3C302202031CB0
:10018000E228A201A30A0A302302031DE228A301E8
:10019000A50A06302502031DE228A501A40A0430A1
:1001A0002402031DD728023026020319DB280A3057
:1001B0002402031DE228A401A60A03302602031D1F
:1001C000E228A6010800A201A30A0A302302031DA7
:1001D000F028A301A50A06302502031DF028A50179
:1001E0000800A201A40A04302402031DFB280230E7
:1001F00026020319FF280A302402031D0629A40140
:10020000A60A03302602031D0629A60108003308AA
:100210002302031D192934082502031D1929350855
:100220002402031D192936082602031D1929A117C6
:060230001A29A1130800C9
:02400E00313F40
:00000001FF
