:020000040000FA
:020000001C28BA
:080008000B11AE000130810074
:100010003020A80AC8302802031D1B280830AD0074
:1000200000000000E930AC000000AC0B1528AD0B5F
:1000300012285720AE080900831600308800E830E7
:100040008600D33081008B168B178312FF30880017
:10005000A301A401A501A601A701A801B0012F28B1
:1000600023302707840017308600000841208800CD
:10007000270852208600A70A043027020319A70187
:1000800008008207C034F934A434B034993492346F
:100090008234F8348034903488348334C634A134C4
:1000A00086348E3482071634153413340734A8018D
:1000B000B00A3C303002031C7E28B001A30A0A308B
:1000C0002302031D7E28A301A40A06302402031D77
:1000D0007E28A401A50A04302502031D73280230DE
:1000E0002602031977280A302502031D7E28A50160
:0E00F000A60A03302602031D7E28A601080082
:02400E00313F40
:00000001FF
