:020000040000FA
:020000003B289B
:080008000C108E018F01BA0BF0
:1000100032280630BA000808B9008714FF3088007B
:100020008316FF30880083120808B8008316880101
:100030008312390888008710FF3088003819242877
:10004000861D332886193528B8192A28B31F372862
:10005000B31B392838188817381C8813B8180817A4
:10006000B81C081309008615242886112428B31704
:100070002A28B3132A2883168710861188010711AE
:100080000C140B178B178312FF3088008E018F0121
:1000900001309000B801B90187100630BA00553020
:1000A000B400B31B542851285530B700FF30B600B8
:1000B000B60B5828B70B5628071163200715632085
:1000C000B40B5C2851285030B500B50B65280800EA
:02400E00313F40
:00000001FF
