:020000040000FA
:020000001C28BA
:080008000B11AB000130810077
:100010005020A80AC8302802031D1B280830AA0057
:1000200000000000E930A9000000A90B1528AA0B68
:1000300012287C20AB080900831600308800E030CD
:1000400086000711D33081008B168B178312FF3087
:100050008800A301A501A401A601A701A801A2018E
:1000600086150130B300B401B501B601861D3628EE
:10007000A420A11B3C2836285530AF00FF30AE002D
:10008000AE0B4028AF0B3E2807114B2007154B2025
:10009000AC0B442836285030AD00AD0B4D2808007D
:1000A0002113861921172330270784001730860073
:1000B000000866208800270877208600211B861507
:1000C000A70A043027020319A70108008207C034D9
:1000D000F934A434B034993492348234F83480340E
:1000E000903488348334C634A13486348E34820705
:1000F0001634133415340734A801A20A3C30220206
:10010000031CA328A201A30A0A302302031DA3286B
:10011000A301A50A06302502031DA328A501A40AF0
:1001200004302402031D98280230260203199C285B
:100130000A302402031DA328A401A60A03302602C4
:10014000031DA328A601080033082302031DB628B7
:1001500034082502031DB62835082402031DB628DD
:1001600036082602031DB628A117B728A1130800D8
:02400E00313F40
:00000001FF
